:020000040800F2
:1000000080070020FD2100082D0200082F020008B3
:1000100033020008370200083B020008000000001D
:100020000000000000000000000000003F02000887
:1000300041020008000000004302000845020008D9
:1000400017220008172200081722000817220008AC
:10005000172200081722000817220008172200089C
:10006000172200081722000817220008172200088C
:10007000172200081722000817220008172200087C
:10008000172200081722000817220008172200086C
:10009000172200081722000817220008172200085C
:1000A000172200081722000817220008172200084C
:1000B000D322000817220008172200081722000880
:1000C000172200081722000817220008172200082C
:1000D000172200085F0300083D22000817220008CD
:1000E00017220008172200081722000800F002F863
:1000F00000F03AF80AA090E8000C82448344AAF188
:100100000107DA4501D100F02FF8AFF2090EBAE885
:100110000F0013F0010F18BFFB1A43F0010318473B
:10012000A02D0000C02D0000103A24BF78C878C16F
:10013000FAD8520724BF30C830C144BF04680C60ED
:10014000704700000023002400250026103A28BF35
:1001500078C1FBD8520728BF30C148BF0B60704739
:100160001FB51FBD10B510BD02F05EFE1146FFF7B2
:10017000F7FF00F009F802F07CFE03B4FFF7F2FF8E
:1001800003BC02F081FE000000F0B0F900F05DF960
:100190004FF4E13000F05AF84FF4E13000F0E0F8AD
:1001A00000F00EFA09A000F0A4F80EA000F0A1F8EB
:1001B00002F001FA11A000F09CF815A000F099F8E7
:1001C00002F029FA01E002F0DCFCFCE74750525350
:1001D000C4A3BFE947505253B2E2CAD4B3CCD0F261
:1001E0000D0A000047505253C4A3BFE9D4DAD7A286
:1001F000B2E1CDF8C2E70D0A0000000047505253AB
:10020000C4A3BFE9D7A2B2E1B3C9B9A60D0A0000E1
:1002100047505253C4A3BFE9BFAACABCC1ACBDD3A7
:10022000B7FECEF1C6F70D0A00000000704700BF10
:10023000FEE700BFFEE700BFFEE700BFFEE7704736
:100240007047704710B500F0AAF910BD10B586B020
:100250000446012144F2040000F06AFD744801F0F4
:10026000D9FC4FF40070ADF8140018208DF8170079
:1002700003208DF8160005A96E4800F09DFA4FF492
:100280008060ADF8140004208DF8170005A96948B6
:1002900000F092FA01940020ADF80800ADF80A00D1
:1002A000ADF80C00ADF810000C20ADF80E0001A95F
:1002B0005F4801F0F2FC25208DF8000002208DF847
:1002C000010001208DF802008DF80300684600F05F
:1002D000AAF9012240F22551554801F076FD01218D
:1002E000534801F066FD4021514801F04AFE06B036
:1002F00010BD10B504460BE000BF40214C4801F092
:1003000033FE0028F9D014F8011B494801F0BEFD66
:1003100020780028F0D110BD70B504460D460BE0E2
:1003200000BF4021424801F01FFE0028F9D014F818
:10033000011B3F4801F0AAFD2800A5F10105EFD1FE
:1003400070BD10B5044600BF4021394801F00CFED5
:100350000028F9D02146364801F098FD10BD7047BD
:1003600010B586B004460121480400F0EEFC0121DE
:10037000042000F0DDFC304801F04CFC0420ADF816
:10038000140018208DF8170003208DF8160005A919
:10039000284800F011FA0820ADF8140004208DF868
:1003A000170005A9234800F007FA01940020ADF8D2
:1003B0000800ADF80A00ADF80C00ADF810000C20F4
:1003C000ADF80E0001A91C4801F067FC26208DF84D
:1003D000000001208DF8010000208DF802000120AE
:1003E0008DF80300684600F01EF9012240F2255105
:1003F000114801F0EAFC01210F4801F0DAFC40212C
:100400000D4801F0BEFD06B010BD10B504460BE06E
:1004100000BF4021084801F0A7FD0028F9D014F8DA
:10042000011B054801F032FD20780028F0D110BDF5
:1004300000380140000801400044004010B54FF46E
:10044000F071294800F067FA10BD08B501210820B5
:1004500000F06EFC4FF47870ADF8000010208DF8BD
:10046000030003208DF8020069461F4800F0A4F93C
:10047000FFF7E4FF08BD10B520211B4800F049FA42
:1004800010BD10B52021184800F045FA10BD10B578
:100490004021154800F03DFA10BD10B5402112482A
:1004A00000F039FA10BD10B580210F4800F031FA84
:1004B00010BD10B580210C4800F02DFA10BD10B50C
:1004C0004FF48071084800F024FA10BD10B54FF4C5
:1004D0008071054800F01FFA10BD10B54FF4F0719F
:1004E000014800F016FA10BD000C014030B500BF05
:1004F0002F4800684FF47A72B0FBF2F1B1F1807FBF
:1005000001D301201DE021F07F40401E4FF0E0228A
:10051000506150170F22002807DA13071D0E254BD4
:1005200000F00F04241F1D5503E013071C0E224B7F
:100530001C5400BF00204FF0E022906107201061A2
:1005400000200028D4D14FF0E020006920F0010005
:100550004FF0E021086130BD184908604FF0E021FC
:10056000096941F001014FF0E022116100BF134918
:1005700009680029FBD170474FF47A7141430F4A53
:1005800011604FF0E021096941F001014FF0E022D4
:10059000116100BF094909680029FBD1704707486C
:1005A000006820B105480068401E04490860704793
:1005B0001800002018ED00E000E400E0000000203A
:1005C0001FB50121084600F0C0FB42F20F70ADF8E4
:1005D000080041F61F40ADF804000020ADF80A0005
:1005E000ADF8060001A94FF0804000F0D9FC1C20B6
:1005F0008DF8000001208DF801008DF802008DF8C3
:100600000300684600F00FF801221146900701F040
:100610003EF80121880701F01FF81FBD3149014351
:10062000314A1160704770B5002100230F22C47851
:1006300004B32D4C246804F4E064C4F5E064210A9A
:10064000C1F10403CA40447804FA03F184781440E9
:1006500021430901254C0678A155047804F01F05B3
:100660000124AC4005786D11AD0005F1E025C5F819
:10067000004109E0047804F01F050124AC401C4D42
:100680000678761145F8264070BD1A4A0A400243A2
:10069000154B1B1F1A60704739B1134A121D12689F
:1006A0000243114B1B1D1A6006E00F4A121D12680F
:1006B00082430D4B1B1D1A607047042808D14FF070
:1006C000E021096941F004014FF0E022116107E0E7
:1006D0004FF0E021096921F004014FF0E02211619F
:1006E000704700000000FA050CED00E000E400E0B7
:1006F00080E100E080FFFF1F10B50446CC48844233
:1007000008D10121042000F02DFB0021042000F07D
:1007100029FB46E0C748844208D10121082000F0A7
:1007200021FB0021082000F01DFB3AE0C248844272
:1007300008D10121102000F015FB0021102000F04D
:1007400011FB2EE0BD48844208D10121202000F099
:1007500009FB0021202000F005FB22E0B84884427C
:1007600008D10121402000F0FDFA0021402000F0D6
:10077000F9FA16E0B348844208D10121802000F044
:10078000F1FA0021802000F0EDFA0AE0AE48844240
:1007900007D10121801500F0E5FA0021A01500F035
:1007A000E1FA10BD10B50121084600F0DBFA002186
:1007B000012000F0D7FA10BD2DE9F04102460025D6
:1007C0000026002000230024002791F803C00CF02D
:1007D0000F0591F803C00CF0100CBCF1000F03D012
:1007E00091F802C04CEA050591F800C0BCF1000F79
:1007F00031D0146800202BE04FF0010C0CFA00F30C
:10080000B1F800C00CEA03069E4220D183004FF0ED
:100810000F0C0CFA03F7BC4305FA03FC4CEA040482
:1008200091F803C0BCF1280F06D14FF0010C0CFA6F
:1008300000FCC2F814C00AE091F803C0BCF1480FF4
:1008400005D14FF0010C0CFA00FCC2F810C0401C9E
:100850000828D1D31460B1F800C0BCF1FF0F34DD1B
:10086000546800202EE000F1080C4FF0010808FA4F
:100870000CF3B1F800C00CEA03069E4221D18300BC
:100880004FF00F0C0CFA03F7BC4305FA03FC4CEADB
:10089000040491F803C0BCF1280F05D100F1080C45
:1008A00008FA0CF8C2F8148091F803C0BCF1480FA4
:1008B00007D100F1080C4FF0010808FA0CF8C2F853
:1008C0001080401C0828CED35460BDE8F0814FF65C
:1008D000FF710180022181700421C17070470246BE
:1008E000002093680B400BB1012000E0002070470E
:1008F0000146886880B2704702460020D3680B40EA
:100900000BB1012000E0002070470146C86880B2AA
:10091000704701617047416170470AB1016100E0B1
:1009200041617047C16070474FF480320A43826171
:100930008161826182698269704702460020434B6F
:1009400018684FF68073184040EA021008433F4B86
:10095000186070473E49C8617047F0B50A460023E9
:1009600000240021002500F00046B6F1004F02D11E
:10097000364EF16901E0354E7168C0F3034583B22C
:1009800000F44016B6F5401F08D121F070612F4EDB
:10099000766826F070662D4F7E6012E000F48016B7
:1009A000B6F5801F06D1032606FA05F4A14341F0EF
:1009B000706106E0460D360103FA06F6B14341F0D8
:1009C000706122B1460D360103FA06F6314300F09C
:1009D0000046B6F1004F02D11C4EF16101E01B4E02
:1009E0007160F0BD30B500228B071C0F0F2303FA96
:1009F00004F2164B08338C1053F824309343134CF5
:100A000008348D1044F8253023468C1053F82430D8
:100A10008C07240F00FA04F423430C4C08348D1087
:100A200044F8253030BD0A49DC31086070470000C9
:100A300000080140000C014000100140001401407A
:100A400000180140001C014000200140000001404E
:100A500000002042DF48006840F00100DD490860E6
:100A600008464068DC490840DA49486008460068A2
:100A7000DA490840D74908600846006820F4802019
:100A800008600846406820F4FE0048604FF41F00EC
:100A900088607047CF49096821F48031CD4A1160E0
:100AA0001146096821F480211160B0F5803F03D020
:100AB000B0F5802F0ED106E0C649096841F48031B7
:100AC000C44A116007E0C349096841F4A021C14A42
:100AD000116000E000BF00BF704710B50146002262
:100AE000002300204A11012A02D1BA4C236806E0F3
:100AF000022A02D1B74C236A01E0B64C636A01F0C6
:100B00001F02012494401C400CB1012000E0002091
:100B100010BD38B5002000900024002500BF312012
:100B2000FFF7DBFF05460098401C00900098B0F5E9
:100B3000A06F01D0002DF2D03120FFF7CEFF08B119
:100B4000012400E00024204638BD01460020A14ACF
:100B5000106820F0F80040EAC10010607047A0491A
:100B600008607047024600209A4B586820F47C10B9
:100B700042EA01031843974B58607047984908664A
:100B8000704701460020934A506820F00300084354
:100B9000506070478F48406800F00C007047014675
:100BA00000208C4A506820F0F000084350607047E5
:100BB00001460020874A506820F4E06008435060F6
:100BC000704701460020834A506820F4605040EA94
:100BD000C1005060704729B17E4A527A02437D4B72
:100BE0005A7204E07B4A527A82437A4B5A727047B7
:100BF0007B49D8310860704701460020754A50682B
:100C000020F440400843506070470021714A203270
:100C10001170704A82F82010012802D004280AD1ED
:100C200004E001216B4A2032117005E00521694A78
:100C30002032117000E000BF00BF704769490860B2
:100C400070476449096A0143624A11627047654905
:100C500044390860704730B5002100220024002389
:100C60005C4D6D6805F00C0121B1042905D00829FF
:100C700023D105E05C4D056022E05B4D05601FE07F
:100C8000544D6D6805F47012524D6D6805F4803452
:100C9000022505EB92421CB9544D554305600BE00B
:100CA0004C4D6D6805F400351DB1504D5543056040
:100CB00002E04D4D5543056002E04B4D056000BF1D
:100CC00000BF444D6D6805F0F0010909484D6B5CAB
:100CD0000568DD4045603F4D6D6805F4E061090A37
:100CE000434D6B5C4568DD4085603A4D6D6805F4A9
:100CF0006051C90A3E4D6B5C4568DD40C560354DAD
:100D00006D6805F44041890B3A4D6B5CC568B5FBD5
:100D1000F3F5056130BD29B12E4A526902432D4BCE
:100D20005A6104E02B4A526982432A4B5A61704748
:100D300029B1284A92690243264B9A6104E0254A68
:100D400092698243234B9A61704729B1214AD26943
:100D50000243204BDA6104E01E4AD26982431D4BF4
:100D6000DA61704729B11B4AD2680243194BDA6035
:100D700004E0184AD2688243164BDA60704729B102
:100D8000144A12690243134B1A6104E0114A1269B2
:100D90008243104B1A61704712494039086070470E
:100DA0000F49C86470470B49C87170470948406AC9
:100DB00040F0807007494862704701460020054AAC
:100DC00092680A400AB1012000E000207047014902
:100DD00088727047001002400000FFF8FFFFF6FE27
:100DE000000042428004424200127A0000093D00A5
:100DF000040000201400002010B50446FE48844280
:100E000008D10121C014FFF7ADFF0021E014FFF766
:100E1000A9FFC4E0B4F1804F08D101210846FFF7D3
:100E2000AEFF00210120FFF7AAFFB8E0F34884429B
:100E300008D101210220FFF7A2FF00210220FFF7C5
:100E40009EFFACE0EE48844208D101210420FFF768
:100E500096FF00210420FFF792FFA0E0E9488442BA
:100E600008D101210820FFF78AFF00210820FFF7A1
:100E700086FF94E0E448844208D101211020FFF766
:100E80007EFF00211020FFF77AFF88E0DF488442D0
:100E900008D101212020FFF772FF00212020FFF759
:100EA0006EFF7CE0DA48844208D101214014FFF74C
:100EB00059FF00216014FFF755FF70E0D5488442C8
:100EC00009D10121C804FFF74DFF00214FF4002094
:100ED000FFF748FF63E0D048844209D101210805AB
:100EE000FFF740FF00214FF48010FFF73BFF56E073
:100EF000CA48844209D101214805FFF733FF002188
:100F00004FF40010FFF72EFF49E0C548844208D196
:100F100001214020FFF733FF00214020FFF72FFF82
:100F20003DE0C048844208D101218020FFF727FF1F
:100F300000218020FFF723FF31E0BB48844208D125
:100F400001218015FFF71BFF0021A015FFF717FFF8
:100F500025E0B648844209D101210804FFF702FFC9
:100F600000214FF48030FFF7FDFE18E0B0488442C6
:100F700009D101214804FFF7F5FE00214FF40030AC
:100F8000FFF7F0FE0BE0AB48844208D10121880452
:100F9000FFF7E8FE00214FF48020FFF7E3FE10BDCD
:100FA00000220288944B98420ED0994B98420BD065
:100FB000B0F1804F08D0914B984205D0904B9842A9
:100FC00002D0904B984204D14FF68F731A404B8851
:100FD0001A438D4B984207D08C4B984204D04FF661
:100FE000FF431A40CB881A4302808B8883850B8885
:100FF0000385814B98420BD0854B984208D08B4B90
:10100000984205D08A4B984202D08A4B984201D12F
:101010000B7A038601238382704770B50024002277
:101020000023058C4FF6FE7635400584028C8388BC
:10103000048B4FF68F752C40B51E2C400D882C4329
:10104000751E2A400D892A434D882A436A4DA842BD
:101050000BD06F4DA84208D0744DA84205D0744DF6
:10106000A84202D0734DA84213D14FF6F7752A401B
:101070004D892A434FF6FB752A408D882A434FF647
:10108000FF652B404FF6FF552B408D892B43CD89B3
:101090002B4383800483CD888586028470BD70B520
:1010A000002400220023058C4FF6EF76354005849E
:1010B000028C8388048B48F6FF752C404FF6FF4561
:1010C0002C400D884FF6FF7606EA05252C434FF697
:1010D000DF752A400D8906EA05152A434D8806EA80
:1010E00005152A43444DA84202D0494DA8421DD1BE
:1010F0004FF67F752A404D894FF6FF7606EA0515B3
:101100002A434FF6BF752A408D8806EA05152A4303
:101110004FF6FF352B404FF2FF752B408D8906EAC5
:1011200085052B43CD8906EA85052B4383800483FF
:10113000CD880587028470BD70B50024002200238D
:10114000058C4FF6FF6635400584028C8388848BBE
:101150004FF68F752C404FF6FC752C400D882C43B4
:101160004FF6FF552A400D894FF6FF7606EA052512
:101170002A434D8806EA05252A431F4DA84202D07E
:10118000234DA8421DD14FF2FF752A404D894FF6DD
:10119000FF7606EA05252A434FF6FF352A408D885B
:1011A00006EA05252A434EF6FF752B404DF6FF75DE
:1011B0002B408D8906EA05152B43CD8906EA0515D6
:1011C0002B4383808483CD888587028470BD70B56E
:1011D000002200230024058C4EF6FF76354005845E
:1011E000038C8488828B48F6FF752A404FF6FF45B2
:1011F0002A400D8820E00000002C0140000400403F
:1012000000080040000C00400010004000140040A6
:1012100000340140004C01400050014000540140A6
:1012200000180040001C0040002000400040014029
:1012300000440140004801404FF6FF7606EA0525CC
:101240002A434DF6FF752B400D8906EA05352B43E1
:101250004D8806EA05352B43FA4DA84202D0FA4DD7
:10126000A84208D14BF6FF752C408D894FF6FF76CA
:1012700006EA85152C4384808283CD88A0F84050EF
:10128000038470BD828B4FF2FF331A408283828BBE
:101290004FF6FF7303EA01231A4382837047F0B5C8
:1012A0000C461546002200210026078C4EF6FF7CD6
:1012B00007EA0C070784828B018C4FF6FF7707EA59
:1012C000043640F6FF473A404FF6FF7707EA052716
:1012D0003A434FF6FF7707EA03373A43D94FB8420C
:1012E0000ED0D94FB8420BD0B0F1804F08D0D74FB5
:1012F000B84205D0D64FB84202D0D64FB84206D138
:101300004DF6FF77394046F48057394305E047F6FC
:10131000FF57394044F48057394382830184F0BD3C
:10132000828B4FF6F3731A408283828B0A43828347
:101330007047F0B50C461546002200210026078CA8
:101340004FF6FF6C07EA0C070784828B018C4FF67F
:10135000FF7707EA04264FF60C773A404FF6FF77FF
:1013600007EA03172F433A43B64FB8420ED0B64FA1
:10137000B8420BD0B0F1804F08D0B44FB84205D07E
:10138000B34FB84202D0B34FB84206D14FF6FF5721
:10139000394046F48077394305E04FF2FF57394032
:1013A00044F48077394382830184F0BD028B4FF28D
:1013B000FF331A400283028B4FF6FF7303EA0123C7
:1013C0001A4302837047F0B50C46154600220021EF
:1013D0000026078C4FF6EF7C07EA0C070784028B88
:1013E000018C4FF6FF7707EA041640F6FF473A40B4
:1013F0004FF6FF7707EA03373A434FF6FF7707EADE
:1014000005273A438F4FB8420ED08F4FB8420BD0CA
:10141000B0F1804F08D08D4FB84205D08C4FB84204
:1014200002D08C4FB84206D14FF6DF77394046F0F4
:101430001007394305E04FF65F77394044F0100755
:10144000394302830184F0BD028B4FF6F3731A40D7
:101450000283028B0A4302837047F0B50C4615469F
:1014600000220021068C4FF6FE773E400684028B58
:10147000018C4FF60C7632407E1C06EA03162E4392
:101480003243704EB0420ED06F4EB0420BD0B0F12E
:10149000804F08D06D4EB04205D06D4EB04202D0A4
:1014A0006C4EB04206D14FF6FD76314044F0010655
:1014B000314305E04FF6F576314044F00106314303
:1014C00002830184F0BD70B505460C465D48854237
:1014D0000ED05D4885420BD0B5F1804F08D05B48F7
:1014E000854205D05A48854202D05A48854200D1EB
:1014F00000E000BF208850B92389A288618828466F
:10150000FFF7ABFFE1882846FFF79EFF25E0208824
:1015100004280AD12389A28861882846FFF753FF4F
:10152000E1882846FFF742FF17E0208808280AD103
:101530002389A28861882846FFF7FBFEE1882846B8
:10154000FFF7EEFE09E02389A28861882846FFF7AD
:10155000A6FEE1882846FFF795FE70BD2DE9F04113
:1015600005460C4600260127608808B9022600E0DF
:101570000026A088012801D1022700E00127208849
:10158000A0B92389A28861882846FFF766FFE18811
:101590002846FFF759FF23893A4631462846FFF788
:1015A00012FFE1882846FFF701FF13E02389A28894
:1015B00061882846FFF707FFE1882846FFF7F6FE17
:1015C00023893A4631462846FFF747FFE1882846F7
:1015D000FFF73AFFBDE8F0810A884B881A438B88F1
:1015E0001A43CB881A430B891A434B891A438B89B8
:1015F0001A43A0F8442070474FF6FF718180002104
:101600000180C180418001727047002101804180CA
:101610008180C180018141818181C1817047002128
:1016200001804180012181800021C18001817047BA
:101630000021018041808180C180018141818181BF
:1016400070470000002C01400034014000040040BD
:1016500000080040000C004021B1028842F0010265
:10166000028004E002884FF6FE731A400280704741
:1016700031B1B0F8442042F40042A0F8442005E023
:10168000B0F84420C2F30E02A0F8442070471AB10B
:1016900083890B43838102E083898B438381704775
:1016A0008182704741EA0203A0F8483070471AB1BE
:1016B00083890B43838102E083898B438381704755
:1016C00001894FF6F8721140018170470A460021E6
:1016D00001894FF68F73194011430181704730B56E
:1016E00004460D4629462046FFF7F0FF208940F0CA
:1016F0000700208130BD2DE9F04104460D46164615
:101700001F46602D06D13B46012231462046FFF799
:101710005AFE05E03B46012231462046FFF79DFE7A
:1017200029462046FFF7D2FF208940F0070020819C
:10173000BDE8F08130B50C4600210189C9B24FF6F1
:10174000FF7505EA0325154325432943018130BD73
:101750002DE9F04105460E461746984600244346BB
:101760003A4631462846FFF7E5FF2C894FF6F870D8
:10177000044044F007044FF68F70044044F07004B6
:101780002C81BDE8F081F0B504460D4616461F4693
:101790003B46324629462046FFF7CCFF208940F4DD
:1017A00080402081F0BD0185828270470A46002179
:1017B00001884FF68F731940114301807047F0B5CF
:1017C0000C4615461E460021002200230189028B8B
:1017D000038C4FF6F877394021434FF6FC473A40E7
:1017E00040F201173A434FF6DD773B404FF6FF7763
:1017F00007EA06172F433B43018102830384F0BDB0
:101800000A460021018B4FF68F7319401143018363
:1018100070470A460021018B48F6FF7319404FF6C6
:10182000FF7303EA02231943018370470A4600212C
:10183000818B4FF68F7319401143818370470A469D
:101840000021818B48F6FF7319404FF6FF7303EABE
:10185000022319438183704721B1028842F080023C
:10186000028004E002884FF67F731A4002807047BE
:1018700021B1828842F00402828004E082884FF61F
:10188000FB731A408280704721B1828842F00802BF
:10189000828004E082884FF6F7731A408280704796
:1018A00021B1828842F00102828004E082884FF6F2
:1018B000FE731A40828070470A460021018B4FF662
:1018C000F77319401143018370470A460021018BC9
:1018D0004FF2FF7319404FF6FF7303EA02231943D7
:1018E000018370470A460021818B4FF6F773194038
:1018F0001143818370470A460021818B4FF2FF73A9
:1019000019404FF6FF7303EA02231943818370479E
:101910000A460021018B4FF6FB73194011430183E6
:1019200070470A460021018B4FF6FF3319404FF6EE
:10193000FF7303EA02231943018370470A4600211B
:10194000818B4FF6FB7319401143818370470A4620
:101950000021818B4FF6FF3319404FF6FF7303EAE6
:1019600002231943818370470A460021018B4FF6F9
:101970007F7319401143018370470A460021018B90
:10198000C1F30E014FF6FF7303EA022319430183EB
:1019900070470A460021818B4FF67F73194011432F
:1019A000818370470A460021818BC1F30E014FF6F7
:1019B000FF7303EA02231943818370470A4600211B
:1019C000018C4FF6FD7319401143018470470A469C
:1019D0000021018C4FF6F7731940114301847047C1
:1019E0000A460021018C4FF6DF7319404FF6FF7352
:1019F00003EA02131943018470470A460021018C4F
:101A00004FF67F7319404FF6FF7303EA0213194331
:101A1000018470470A460021018C4FF6FF5319409C
:101A20004FF6FF7303EA02231943018470470A4605
:101A30000021018C4FF2FF7319404FF6FF7303EA48
:101A400002231943018470470A460021018C4DF698
:101A5000FF7319404FF6FF7303EA02331943018401
:101A6000704730B5002301248C40A3B2048C9C4302
:101A70000484048C02FA01F5ADB22C43048430BD19
:101A800030B5002304248C40A3B2048C9C4304840E
:101A9000048C02FA01F5ADB22C43048430BD70B55C
:101AA0000346002000241846183001258D40ACB2B2
:101AB0001D8CA5431D8409B1082909D100EB6100E3
:101AC000056825F0700505600568154305600EE0A2
:101AD0000D1FC5F34E052844056825F4E045056053
:101AE00005684FF6FF7606EA02263543056070BDAD
:101AF00021B1028842F00202028004E002884FF61F
:101B0000FD731A400280704721B1028842F004023E
:101B1000028004E002884FF6FB731A40028070478F
:101B200021B1828842F08002828004E082884FF6F0
:101B30007F731A408280704702884FF6F7731A400D
:101B4000028002880A430280704782884FF68F73B2
:101B50001A40828082880A438280704702894FF649
:101B6000F8731A40028102890A4302817047028990
:101B70004FF67F731A40028102890A43028170473F
:101B800081847047818570478186704701877047DF
:101B900081877047A0F84010704702884FF6FF43D6
:101BA0001A40028002880A43028070470146888EEC
:101BB00070470146088F70470146888F704701467D
:101BC000B1F8400070470146888C70470146088D87
:101BD000704702460020138A0B400BB1012000E041
:101BE00000207047CA430282704730B50246002089
:101BF00000230024158A05EA0103958905EA0104FA
:101C000013B10CB1012000E0002030BDCA430282B4
:101C10007047000010B50446FB48844209D10121F9
:101C20008803FFF79FF800214FF48040FFF79AF8F0
:101C300032E0F648844209D101214804FFF79FF8B9
:101C400000214FF40030FFF79AF825E0F048844275
:101C500009D101218804FFF792F800214FF4802078
:101C6000FFF78DF818E0EB48844209D10121C80440
:101C7000FFF785F800214FF40020FFF780F80BE014
:101C8000E548844208D101210805FFF778F80021D2
:101C90004FF48010FFF773F810BD2DE9F04786B0C0
:101CA00005460E460024A24600BFA1460027B08983
:101CB00000B100BF2F462C8A4CF6FF700440F0881C
:101CC00004432C82AC894EF6F3100440B08831896D
:101CD0000843718908430443AC81AC8A4FF6FF4046
:101CE0000440B0890443AC8201A8FEF7B4FFC648A3
:101CF000874202D1DDF810A001E0DDF80CA0A88930
:101D000000F4004040B10AEBCA0000EB0A10316851
:101D10004900B0FBF1F807E00AEBCA0000EB0A103B
:101D200031688900B0FBF1F86420B8FBF0F00401E1
:101D30002009642101FB1089A88900F4004040B10A
:101D4000322000EBC900B0FBF1F000F007000443C3
:101D500008E0322000EB09106421B0FBF1F000F044
:101D60000F0004432C8106B0BDE8F0874FF41651F4
:101D7000016000218180C18001810C21418100210D
:101D80008181704710B502460020108A4FF2FF0390
:101D900018400B884C8823438C882343CC882343EA
:101DA0001843108210BD0021018041808180C180D4
:101DB000704721B1828942F40052828104E0828915
:101DC0004DF6FF731A4082817047F0B50346002438
:101DD00000260025002040F66A17B94200D100BF56
:101DE0001846C1F3421401F01F06012707FA06F551
:101DF000012C01D10C3004E0022C01D1103000E0A4
:101E000014301AB107682F43076002E00768AF4338
:101E10000760F0BD1AB1838A0B43838202E0838A94
:101E20008B4383827047028A4FF6F0731A40028216
:101E3000028A0A430282704782894FF2FF731A4076
:101E4000828182890A438281704721B1828942F06E
:101E50000202828104E082894FF6FD731A4082817A
:101E60007047028A4FF6DF731A400282028A0A43E1
:101E70000282704721B1028A42F48042028204E069
:101E8000028A4BF6FF731A4002827047C1F30802C0
:101E90008280704701468888C0F3080070478189B6
:101EA00041F0010181817047028BD2B20283028B23
:101EB00042EA012202837047028B02F47F420283CE
:101EC000028B0A430283704721B1828A42F02002CA
:101ED000828204E0828A4FF6DF731A408282704762
:101EE00021B1828A42F01002828204E0828A4FF697
:101EF000EF731A408282704721B1828A42F0080251
:101F0000828204E0828A4FF6F7731A408282704719
:101F100021B1828942F40042828103E08289C2F3C6
:101F20000E028281704721B1828A42F4006282826D
:101F300004E0828A4FF2FF731A4082827047828ADD
:101F40004FF6FB731A408282828A0A43828270476C
:101F500021B1828A42F00202828204E0828A4FF634
:101F6000FD731A408282704702460020B1F5007F5F
:101F700000D100BF13880B400BB1012000E000200E
:101F8000704701F40072B2F5007F00D100BFCA4370
:101F90000280704770B5024600240023002500200F
:101FA00040F66A16B14200D100BFC1F3421501F0FC
:101FB0001F03012606FA03F3012D02D1968933404F
:101FC00006E0022D02D1168A334001E0968A3340A2
:101FD0000C12012606FA04F41688344013B10CB131
:101FE000012000E0002070BD10B50022002340F663
:101FF0006A14A14200D100BF0A1201249440A3B286
:10200000DC43048010BD0000003801400044004063
:1020100000480040004C0040005000400CB500203B
:10202000019000906C48006840F480306A49086074
:1020300000BF6948006800F4003000900198401C1F
:102040000190009818B90198B0F5A06FF1D16248DD
:10205000006800F4003010B10120009001E0002081
:1020600000900098012843D15C48006840F01000BF
:102070005A4908600846006820F0030008600846D6
:10208000006840F0020008605348406852494860C8
:102090000846406848600846406840F480604860F0
:1020A0000846406820F47C1048600846406840F4C8
:1020B000E81048600846006840F08070086000BF83
:1020C0004548006800F000700028F9D04248406898
:1020D00020F00300404948600846406840F0020094
:1020E000486000BF3C48406800F00C000828F9D167
:1020F0000CBD10B5FFF792FF10BD10B53648006853
:1021000040F00100344908600846406834490840FE
:102110003149486008460068324908402E49086045
:102120000846006820F4802008600846406820F4D3
:10213000FE0048604FF41F008860FFF7DAFF4FF0A1
:1021400000602949086010BD10B500210020002260
:10215000214B5B6803F00C0121B1042906D008294A
:1021600028D107E0214B224C236027E01F4B204C55
:10217000236023E0184B5B6803F47010164B5B6818
:1021800003F48032022303EB904022B9194B4343FE
:10219000174C23600DE0104B5B6803F4003323B150
:1021A000144B4343124C236003E0104B4343104C49
:1021B000236003E00D4B0E4C236000BF00BF064BB5
:1021C0005B68C3F303130C4CE15C094B1B68CB4009
:1021D000074C236010BD00000010024000200240A8
:1021E0000000FFF8FFFFF6FE08ED00E000127A00A5
:1021F0001800002000093D001C000020094880470D
:1022000009480047FEE7FEE7FEE7FEE7FEE7FEE7D8
:10221000FEE7FEE7FEE7FEE704480549054A064BF0
:1022200070470000FB200008ED000008800100203E
:1022300080070020800300208003002010B50024C8
:102240004648FFF727FEC4B245484649097844543A
:1022500044480078401C4349087008460078C82864
:1022600001DD002008704CF250303F490860012029
:102270003E49087010BD00203B4908603B4908708A
:10228000704770B506460C4636480078A04201DD1E
:10229000204601E03348007805463348006830B1F5
:1022A00031480068401E30490860002070BD2F484A
:1022B000007848B100202D4908702A462849304648
:1022C00000F038FDA8B2F1E70020EFE728490880C8
:1022D000704710B501218807FFF787FC002835D02B
:1022E00001218807FFF792FC2248007820B122489C
:1022F0000078401C204908701F4800781F49097861
:10230000884204DD00201B4908701B4908701C48E6
:102310000088401C1A49088008460088144909882A
:10232000884205DD00201649088001201549087003
:102330001548007828B1FEF7C2F80020124908704D
:1023400004E0FEF7C3F801200F49087010BD10B576
:10235000044621460148FFF799FD10BD00440040A6
:10236000540000202D000020380000203C000020F8
:102370003E000020320000202C0000202E00002013
:102380003000002035000020400000202DE9F04101
:1023900006460F46002522E0705D0411092C05DD7C
:1023A00004F13701C8B2FDF7CCFF04E004F13001BD
:1023B000C8B2FDF7C6FF705D00F00F04092C05DD03
:1023C00004F13701C8B2FDF7BCFF04E004F13001AD
:1023D000C8B2FDF7B6FF2020FDF7B3FF6D1CBD426C
:1023E000DADBBDE8F08110B5002404E000208D495F
:1023F0000855601C84B2C82CF8DB00208A4908709C
:10240000FFF739FF10BD10B504462146854800F09E
:102410007FFC08B1012010BD0020FCE72DE9F04150
:1024200004460D461646A046FFF7DDFF002726E0CE
:102430002846FFF7E8FFF0B97C480078F8B9444631
:102440000AE000BF40217A48FFF78EFD0028F9D04E
:102450002078FFF77CFF641C20780028F1D175A05C
:10246000FDF7D3FF002074490870744806700120FE
:102470006E49087003E0012700206C490870002FA6
:10248000D6D0FFF7B0FFBDE8F0812DE9F047044654
:102490000D4616460027A146FFF7A5FFB84634E0D3
:1024A0002846FFF7B0FF00282AD1604800780028AE
:1024B0002BD14C460AE000BF40215D48FFF754FD98
:1024C0000028F9D02078FFF742FF641C207800280C
:1024D000F1D158A0FDF799FF0020574908705748DF
:1024E0000670012051490870781CC7B2032F0CDD1B
:1024F0000020087052A0FDF7FCFE0020BDE8F08728
:102500004FF00108002049490870B8F1000FC7D00A
:10251000FFF769FF0120F1E72DE9F05F04460D4662
:1025200016461F464FF00009A346FFF75CFFCA4658
:102530003AE02846FFF767FF002830D13B48007893
:10254000002831D15C4680460EE000BF402138486B
:10255000FFF70AFD0028F9D02078FFF7F8FE641C89
:1025600008F1010000F0FF08B045EED31A20FFF794
:10257000EEFE0020304908703048077001202B49DA
:10258000087009F1010000F0FF09B9F1030F0BDD3C
:10259000002008702AA0FDF7ACFEBDE8F09F4FF0C8
:1025A000010A002021490870BAF1000FC1D0FFF7DD
:1025B0001AFF00BFF1E770B50025FFF714FF27E011
:1025C000FFF711FF22A0FDF720FF1AA0FDF71DFF66
:1025D00041F28830FDF7C0FF002413E01148005D90
:1025E0003A280DD10F49201D085C312803D0201D49
:1025F000085C352804D101250EA0FDF77AFE03E022
:10260000601CC4B2C82CE9DB00BF14A0FDF771FE4A
:10261000002DD5D070BD10B5032213A113A0FFF774
:10262000FDFE10BD540000202D00002032000020CF
:10263000004400400D0A00002C0000202E00002065
:102640007472792065786974202E2E2E0D0A000090
:1026500041542B435245473F00000000D7A2B2E14E
:10266000D6D02E2E2E2E2E004F4B0000415445303A
:102670000000000010B5044657A0FDF7C6FE642018
:10268000FDF76AFF022258A159A0FFF7C7FE0222F8
:102690005AA15BA0FFF7C2FE022258A15CA0FFF77F
:1026A000BDFE022255A161A0FFF7B8FE022253A190
:1026B00061A0FFF7B3FE022250A165A0FFF7AEFEB6
:1026C0002CB105224DA12046FFF7A8FE05E005220A
:1026D0004AA163480068FFF7A1FE6420FDF73CFFB4
:1026E000FFF781FE10BD10B55EA1604800F010FB41
:1026F00008B300205E4908805E4908706420FDF739
:102700002BFF5DA1594800F003FB10B1FDF7B3FEAC
:1027100006E05BA1554800F0FBFA08B1FDF7B1FEF9
:1027200059A0FDF7E6FD5148FDF7E3FDFFF75BFE1D
:1027300001205049087010BD10B5022256A157A0C3
:10274000FFF76CFE082258A159A0FFF767FE10BDE5
:1027500010B54848007820B1FFF7EEFF002045494A
:10276000087010BD70B505460C4602224AA14BA068
:10277000FFF78BFE0646012E05D1E3B222464AA1A1
:102780002846FFF7C9FE70BD2DE9F0410646002737
:10279000002434A1354800F0BBFAC8B16420FDF72D
:1027A000DBFE324D06E0601CC4B228783A2800D126
:1027B00001E06D1CF7E700BF2C4801193E48027884
:1027C000304600F0B7FA3C480078071BFFF70BFED5
:1027D0003846BDE8F081000041542B434950434C3A
:1027E0004F53453D3100000053485554204F4B0096
:1027F00041542B4349505348555400004F4B00005F
:1028000041542B4347434C4153533D224222000045
:1028100041542B434744434F4E543D312C224950A1
:10282000222C22434D4E45542200000041542B439C
:10283000474154543D31000041542B4349504353C8
:1028400047503D312C22434D4E455422000000009C
:1028500041542B434950484541443D31000000005C
:10286000440000202B495044000000005400002088
:1028700030000020350000206F6E6C6564000000A1
:102880006F66666C65640000CAD5B5BDD0C2D0C5A0
:10289000CFA2A3BA0D0A00003E00000041542B4312
:1028A000495053454E44000053454E44204F4B0081
:1028B0004F4B1A00000000002D00002010B502460A
:1028C0000B461078012103E0545C60404C1CE1B2DF
:1028D0009942F9DB10BDF0B599B006460F46154692
:1028E00000243A222046641C0DF800202046641C77
:1028F0000DF800202046641C0DF800602A122146C5
:10290000641C0DF80120EAB22046641C0DF800207A
:102910000DEB04002A46394600F00CFA2C44A91CA1
:102920000DF10300FFF7CAFF2146641C0DF80100FA
:102930005D222046641C0DF800202046641C0DF822
:102940000020611C6846FFF70DFF19B0F0BD9D48DF
:102950000078704710B59AB0FFF7F9FF012803D04F
:10296000FFF7F5FF022801D11AB010BD9648007894
:10297000C8B1002495480168019100798DF80800DC
:10298000641D64222146641C01A842540122214690
:10299000641C4254224601A90220FFF79CFF00203C
:1029A0008949087000BF00BFDEE78649087070479C
:1029B00010B50220FFF7F9FF0A20FFF787FC10BDD2
:1029C00000B599B00220FFF781FC7F48007818B964
:1029D0007F48006800281FD101207D4908607B489E
:1029E0000168009100798DF8040001208DF8050040
:1029F00078A0FDF77EFC7DA0FFF73CFE85A0FDF7EB
:102A000078FC062269460120FFF765FF87A0FDF7E5
:102A100070FC00206C49087019B000BD38B505463F
:102A20000C462146284600F05EF9022C09D08DF8AC
:102A300000508DF80140022269460A20FFF74BFF43
:102A400000BF38BD08B501208DF8000000F04CF93A
:102A50008DF8010002226946FA20FFF73CFF0120B1
:102A60008DF8000000F042F98DF80100022269465D
:102A7000FB20FFF730FF08BD0EB50A21684600F0C5
:102A800037F902226946F620FFF725FF0EBD00B593
:102A900099B0684600F02DF94C48009901609DF806
:102AA0000410017119B000BD10B59AB001A8FFF76C
:102AB0006BFE0446214601A8FFF768FC0CB91AB06A
:102AC00010BD9DF804003A2837D19DF805003A283A
:102AD00033D19DF806000A2818D004DC012807D05D
:102AE000022829D10EE0F62820D0FA2824D117E0B8
:102AF0000320FFF75AFF5A20FFF7E8FB53A0FDF72A
:102B0000F8FB19E056A0FDF7F4FB15E059A0FDF71E
:102B1000F0FB9DF80A109DF80900FFF77FFF0BE01E
:102B20005DA0FDF7E6FBFFF78DFF05E062A0FDF776
:102B3000E0FBFFF7A1FF00BF00BF00BFBFE770478A
:102B400010B5FFF7A4FF0120FFF72FFF10BD10B550
:102B50009AB0642101A8FFF794FB04467CB15AA007
:102B6000FDF7C7FB01A8FDF7C4FB2FA0FDF7C1FBD4
:102B70005AA0FFF748FC10B10120FFF716FF1AB06A
:102B800010BD10B5FFF7E3FE30B1012807D00228D1
:102B900008D003280CD108E0FFF7D2FF09E0FFF7C7
:102BA00007FF06E0FFF70CFF03E0FFF7C8FF00E0B8
:102BB00000BF00BFFFF778FFFFF7CCFEFFF7C7FFAE
:102BC00010BD000048000020350000204900002012
:102BD00050000020436F6E6E6563745F53657276BC
:102BE0006572202E2E2E200D0A00000041542B432A
:102BF000495053544152543D22544350222C2231C7
:102C000030362E31332E36322E313934222C3636B0
:102C1000363600006C6F67696E5F33615F73657293
:102C2000766572202E2E2E200D0A000065786974BC
:102C300020206C6F67696E5F33615F7365727665C4
:102C400072202E2E2E200D0A00000000B7FECEF1BD
:102C5000C6F7B5C7C2BCD3A6B4F0200D0A00000069
:102C6000B7FECEF1C6F7D0C4CCF8D3A6B4F0200D91
:102C70000A000000D4B6B3CCBFAAC6F4D6D5B6CBF2
:102C8000283030B9D8203031BFAA203032B5E3B671
:102C9000AF29200D0A000000D7B4CCACB2E9D1AF07
:102CA000A3ACD6D5B6CBC3BFB4CEB5C7C2BCCAB130
:102CB000CFC2B7A2200D0A004943434944B2E9D12B
:102CC000AF200D0A00000000726563762067736D07
:102CD0002064617461203A2000000000434C4F538F
:102CE000454400007047704700207047002070473F
:102CF00070470CB504A206CACDE900120099016024
:102D00009DF8041001710CBD0102030405000000D0
:102D100030B505460B462A4613F8014B12F8010B55
:102D200008B1A042F8D01CB1002802D06D1CF1E718
:102D3000284630BD032A40F2308010F0030C00F02A
:102D4000158011F8013BBCF1020F624498BF11F8E5
:102D500001CB00F8013B38BF11F8013BA2F104029E
:102D600098BF00F801CB38BF00F8013B11F0030316
:102D700000F02880083AC0F0088051F8043B083A77
:102D800051F804CBA0E80810F5E7121D5CBF51F81C
:102D9000043B40F8043BAFF30080D20724BF11F896
:102DA000013B11F801CB48BF11F8012B24BF00F8FB
:102DB000013B00F801CB48BF00F8012B704770477A
:102DC0007047704710B5203AC0F00B80B1E818503A
:102DD000203AA0E81850B1E81850A0E81850BFF405
:102DE000F5AF5FEA027C24BFB1E81850A0E81850A4
:102DF00044BF18C918C0BDE810405FEA827C24BFF8
:102E000051F8043B40F8043B08BF7047D20728BF85
:102E100031F8023B48BF11F8012B28BF20F8023BD4
:102E200048BF00F8012B7047754600F029F8AE4600
:102E300005006946534620F00700854618B020B5C6
:102E4000FFF7EAF9BDE820404FF000064FF0000719
:102E50004FF000084FF0000B21F00701AC46ACE842
:102E6000C009ACE8C009ACE8C009ACE8C0098D46AF
:102E700070470446AFF300802046FDF77EF900005E
:102E8000004870471C01002001491820ABBEFEE736
:102E9000260002007047000041542B434950535410
:102EA0004152543D22544350222C223130362E318F
:102EB000332E36322E313934222C39303135000060
:102EC000E02E000800000020540000002801000847
:102ED000342F0008540000202C0700004401000893
:102EE00000000000000000000102030401020304CE
:102EF000060708090204060800A24A0400000000B0
:102F00000000000001020304060708090000000099
:102F100000000000000000000000000000005A0057
:102F200001000000982E00080001020304050000C3
:042F3000000000009D
:04000005080000ED02
:00000001FF
